:020000040800F2
:10000000802200202D020008313D00082D3D00080F
:1000100000000000000000000000000000000000E0
:10002000000000000000000000000000AD3D0008DE
:100030000000000000000000B3010008B13D00080E
:100040003F0200083F0200083F0200083F0200088C
:100050003F0200083F0200083F0200083F0200087C
:100060003F020008B5190008C51900083F02000842
:100070003F0200083F0200083F020008E53D00087B
:10008000F53D0008053E00083F0200083F02000859
:100090003F0200083F0200083F0200083F0200083C
:1000A0003F0200083F0200083F0200083F0200082C
:1000B0003F0200083F0200083F02000800F002F87B
:1000C00000F04DF80CA030C8083824182D18A246AE
:1000D000671EAB4654465D46AC4201D100F03FF886
:1000E0007E460F3E0FCCB6460126334200D0FB1AA7
:1000F000A246AB4633431847E88400000885000059
:10010000103A02D378C878C1FAD8520701D330C860
:1001100030C101D504680C60704700000023002442
:1001200000250026103A01D378C1FBD8520700D32E
:1001300030C100D50B60704710B5642902D100F0C2
:100140003FF910BD752902D100F03AF910BD002029
:1001500010BD1FB500F02CFB1FBD10B510BD01F088
:10016000CBFB1146FFF7F5FF06F016FA01F0E3FBB3
:1001700003B4FFF7F2FF03BC01F014FC084B19684D
:100180000868203080F30988022080F31488BFF3C8
:100190006F8F3FBCAE4608BC04BC62B61847000077
:1001A0004C000020EFF3108072B6704780F3108887
:1001B0007047EFF309800E4B1A6820381060F0C0CA
:1001C00044464D4656465F46F0C008B572B607F045
:1001D0005DF962B60CBC116808681030F0C8A04622
:1001E000A946B246BB4680F309882038F0C81847B4
:1001F0004C00002070B505460C46164602E00FCCB8
:100200000FC5103E102EFAD2082E02D303CC03C520
:10021000083E042E07D301CC01C5361F03E0217828
:100220002970641C6D1C761EF9D270BD074880478A
:1002300007480047FEE7FEE7FEE7FEE7FEE7FEE7CA
:1002400004480549054A064B70470000D53D0008A3
:10025000BD000008801C002080220020801E00209D
:10026000801E00204343514330B55C18010C130C31
:100270000D4692B25D4380B251432C190546554359
:100280000A0C09044D1962415843010C000440193D
:10029000514130BDFEB5054610460C46184373D09B
:1002A000AE468C460020AD1A01469C4167D3664697
:1002B000002701243D46B61A9D4102D313463A4613
:1002C0002124654676462F04360C3E432D0CB61A83
:1002D0009D4104D3150C1B042B43120410346546B6
:1002E00076462F06360A3E432D0AB61A9D4104D3A0
:1002F000150E1B022B4312020834654676462F0763
:1003000036093E432D09B61A9D4104D3150F1B0132
:100310002B431201241D65467646AF07B6083E43BF
:10032000AD08B61A9D4104D3950F9B002B43920054
:10033000A41C65467646EF0776083E436D08B61A5C
:100340009D411AD392185B41641C16E00018764652
:1003500065464941B71A9D410191009009D3604615
:10036000B11A98418E468446009801990025401C98
:100370006941DD0752082A435B08641EE6D57246D0
:10038000634603B0F0BDFFE700200146C046C0460B
:100390002A462346F5E700000FB41CB5074B06AA12
:1003A0007B4469460090059800F009FF00206946EB
:1003B00000F018FF1CBC08BC04B01847410E000038
:1003C000F7B5002575291068009914A611D0C0460C
:1003D000C046002802DA404211A608E000990968E8
:1003E0008A0701D50FA602E0490704D50EA601250C
:1003F00001E0C046C046009F0024243704E000F01E
:10040000F6FE30313955641C0028F8D12B463246AF
:100410002146009800F076FEFEBD000000000000BE
:100420002D0000002B00000020000000F8B50F4652
:100430000546002028622846E9688847002852D0EF
:10044000252802D06A68A96849E0E968284600269C
:1004500088476C2804460AD0682C08D04C2C37D02A
:100460006A2C33D0742C33D07A2C31D015E0E96863
:10047000064628468847B042044608D16C2E25D04F
:100480000126B6022846E9688847044605E06C2E36
:1004900002D0FF26013600E04026002C23D0204663
:1004A0004138192803D80120C002064320343A46B7
:1004B00028462E602146FFF73FFE00280CD0012879
:1004C00008D0FF1DFF08FF000837B4E78026D9E7F2
:1004D0000026D7E73F1DAEE76A682046A968904727
:1004E000286A401CA6E7286AF8BD0000034670B5DC
:1004F00002460B439B070FD10E4CE60100E008C2F9
:1005000008C91D1B9D433542F9D0D9B21170521C48
:1005100000290DD01B0AF8E70B78491C1370521CF8
:10052000002B05D00B78491C1370521C002BF3D103
:1005300070BD00000101010130B5441C03E00178E9
:10054000401C00290DD08107F9D10B4BDD0104C8F7
:10055000D11A91432940FAD0001B0A0603D0C01ECD
:1005600030BD001B30BD0A0401D0801E30BD090221
:10057000FCD0401E30BD000001010101F8B5042A85
:100580002CD3830712D00B78491C0370401C521ED9
:1005900083070BD00B78491C0370401C521E830745
:1005A00004D00B78491C0370401C521E8B079B0F14
:1005B00005D0C91ADF002023DE1B08C90AE0FFF7B7
:1005C00019FEF8BD1D4608C9FD401C46B4402C4329
:1005D00010C0121F042AF5D2F308C91A521EF0D413
:1005E0000B78491C0370401C521EEAD40B78491C3E
:1005F0000370401C012AE4D409780170F8BDD2B21E
:1006000010B513029A1813049A1800F00EF810BDD2
:1006100001E004C0091F0429FBD28B0701D5028029
:10062000801CC90700D00270704700290BD0C30797
:1006300002D00270401C491E022904D3830702D550
:100640000280801C891EE3E70022EEE70022DFE73C
:10065000002203098B422CD3030A8B4211D30023BF
:100660009C464EE003460B433CD4002243088B4299
:1006700031D303098B421CD3030A8B4201D3944626
:100680003FE0C3098B4201D3CB01C01A5241830919
:100690008B4201D38B01C01A524143098B4201D3D3
:1006A0004B01C01A524103098B4201D30B01C01AFE
:1006B0005241C3088B4201D3CB00C01A5241830878
:1006C0008B4201D38B00C01A524143088B4201D3A5
:1006D0004B00C01A5241411A00D201465241104605
:1006E00070475DE0CA0F00D04942031000D340427A
:1006F000534000229C4603098B422DD3030A8B42B0
:1007000012D3FC22890112BA030A8B420CD389014D
:1007100092118B4208D3890192118B4204D3890133
:100720003AD0921100E08909C3098B4201D3CB0171
:10073000C01A524183098B4201D38B01C01A524126
:1007400043098B4201D34B01C01A524103098B422A
:1007500001D30B01C01A5241C3088B4201D3CB0015
:10076000C01A524183088B4201D38B00C01A5241F8
:10077000D9D243088B4201D34B00C01A5241411ACF
:1007800000D20146634652415B10104601D34042FD
:10079000002B00D54942704763465B1000D34042AE
:1007A00001B50020C046C04602BD70477047704783
:1007B00070B5064C7C44064D7D4403E0206800196A
:1007C0008047241DAC42F9D170BD0000487E000076
:1007D000487E00000246C80FC00781434B0030B579
:1007E0004B405B009B0D20D01923DB06C918012369
:1007F0001B05994220DB0324A40704251346AB40C4
:100800000BD3002B04D1EB0613409B00E34204D42E
:1008100001246407002312195941FF231B05994243
:100820000BD2C9000143500F09E0CB0204D50143AC
:100830000803024305D0054830BDFF21C905084320
:1008400030BD084607210905884330BD0000C07F40
:10085000F0B50C46871A9C410D46861A9D4103D27D
:10086000C01BA141D21963410D0D1F0DC94EEC1BD8
:10087000AE435CD07F057F0D0026002F51D02D05A3
:10088000AC46A943DD020123ED0A1B051D432023CD
:100890001B1B24D41746E740381871412F46E74008
:1008A000CC199D402818314661410C0D27D1614477
:1008B0009A4013D50023401C594152000ED14008E4
:1008C000400001224B005205D34207D305204007C8
:1008D000C14201D5B04900E0B0493046F0BD6B00DF
:1008E000002A00D001229A181F23203C1B1B01D58F
:1008F000002302E0E540281871410C0DD7D00124F7
:1009000024050919C407CD0740084908E40F284306
:100910006144002CD5D00024401C61419A40D0D1C4
:10092000CDE76A05520DD9D1C90FC907D5E79C4D4E
:100930004E00002801D0012400E0002434195F009B
:10094000002A01D0012600E00026BE19954FAC42D6
:100950000CD8AE420AD8B44206D001256D05EC424F
:10096000BCD010461946F0BD9942FCD00020394653
:10097000F0BDF0B51FB40C460F46811A9F412546C5
:10098000861A9D4106D20125ED076F40401ABC41F1
:1009900052187B41210D1E0D8D1BAC467D4D8D43A4
:1009A0007ED075056D0D7CD00D05AE46AC431B03A6
:1009B0001B0B794D52429D41202366469B1B14D34D
:1009C0001746F740381800260090744160462F46BD
:1009D0000741E41900989D402818664116D47146D5
:1009E00071189A4025D5012320E093182A466A41C0
:1009F0005200002B00D0521C1E23203E9B1B002BBC
:100A000061DD3541EE1728186641E8D500187641BA
:100A10005B1C9A4000D3401C4B05F3181524E3409F
:100A200010D3002B52D071467118D30FC01802D3C7
:100A3000491C05B0F0BD0123DB079A42F9D14008FB
:100A40004000F6E701225205B21801D1002853D028
:100A50000123CC0ADB029943891E002A08D1020C2B
:100A600003D0020C0004103902E0024600202039B5
:100A70000023550B05D112020823550B01D1520159
:100A80000D23550C01D112011B1DD50C01D1920073
:100A90009B1C150D01D152005B1C2025EE1A01E0B4
:100AA0002CE022E00546F54015439840CA1AE107BC
:100AB00069181305C918002ABBDA03204007081873
:100AC000C10FC9070FE071466118B2E7F10740088E
:100AD0000843711071444A000CD001235B059A420F
:100AE000A7D2C90FC9070020A3E74905490D26D1A0
:100AF000002001E00028F4D100219AE7284D66008B
:100B0000002801D0012100E0002171185F00002AB7
:100B100001D0012600E00026BE19224FA94210D8BC
:100B2000AE420ED8B14208D001256D05E94206D08B
:100B30001946A802414010467BE79C4201D021465D
:100B400077E70020394674E710B50C465C4005D5C0
:100B50000124E4076340FFF70CFF10BDFFF778FEA8
:100B600010BD30B40C465C4004D50124E40763405A
:100B700030BC6DE630BCFCE670B50124E407614092
:100B80000D465D4002D4FFF763FE70BD6340FFF782
:100B9000F0FE70BDFF0700000000F0FF0000F07FD6
:100BA0000000E0FF0000F87F0346CA02400D10B5C8
:100BB00010430A1504D00124E4072043002A05DB72
:100BC0000A4CA21A04D4D040FF2A00DD002010BD38
:100BD0004A00002B01D0012000E000201018012263
:100BE0005205D042F2D8C817C04310BD1E04000001
:100BF0001F22030C02D10F22000402D0030E03D0E7
:100C000004E00020014670470002083A030F01D1BA
:100C10000001121F830F01D18000921E002801DB0A
:100C20004000521E120551184205C01241181046CC
:100C30007047C10FC90700D04042012292071143FB
:100C4000D6E701218907D3E7F0B58B4C0F0925467C
:100C500089B0BD437BD01D092646AE43FAD00E466F
:100C60005E402740F60F3E43254071D024012142CB
:100C7000FBD0FF24AD19A4042D1B039501252D05E0
:100C8000DB02DB0AC9022B43C90A29431E01090101
:100C9000040F130F050121431701880B82039143B1
:100CA0002D098C46A90B1E438A039543B30B9A0367
:100CB00096433F09BA0B9403A74302962E467E4300
:100CC0000497B6464E19D7190C460196544305971A
:100CD0007E43371B7646BF1B3601B646BE0B361920
:100CE00000967646BC043719009C01D3641C00941E
:100CF0006400002F01D001263443029E049F7543F7
:100D000066467E430496760034196E0034190094CA
:100D1000029C019E1C196643751BAE4606946546EF
:100D20004519059C05956C43594375460891691A08
:100D30000191049E01465143A41B0491611A009C39
:100D40000791E10605D061090122114302E072E03A
:100D50006EE06109089D00272C0A2D066918049D84
:100D60007C412A0A2D066918019D6241AC0DAD0235
:100D70006D185441079A910D920255196141029ADA
:100D8000644658435443069B059A5A43121A131B50
:100D90009A0E9B015B187A41010B0005C318514163
:100DA000220A200644195A419A4200D2491C0120C5
:100DB0004002814203D315230226F64302E01423A6
:100DC0000326F6432020C51AA9401746AF40DA4053
:100DD0000A4320460399D84009147318190551187D
:100DE000039A3843D2075140AC4009D001229440C5
:100DF00006D30022401C5141002C01D14008400084
:100E00001E4A934212D3012203989206904207DBB6
:100E10000520400709181A480143C012414004E068
:100E2000032040070818C10FC907002009B0F0BD12
:100E30000020F107FAE705180C464C4111486D42B5
:100E4000A04115D394181A465A410E486442904165
:100E50000ED301204A004005824209D35A00824243
:100E600006D35940C90F084AC90700201143DDE7DE
:100E700000200649DAE700000000FF07FE07000037
:100E8000FFFFFF7F0000E0FF0000F07F0000F87F21
:100E90000121C9050123411842001B06D3185B0E2E
:100EA0000AD0C1100722D206891840075242D14207
:100EB00001D5520089187047090208D50146002A59
:100EC00003D0C10FC9070020704710467047420287
:100ED00002D0002002497047072109050143F4E7C9
:100EE0000000F87FF0B5FF252D04C609C209FF27D1
:100EF00004462E400137CB093E4348402A402B4050
:100F00000746002A6BD0002B69D0AA4267D0AB42BB
:100F100065D0002800DA32460125ED0529432C432F
:100F200009022002090AD21A4B0C7F24E31A434C0F
:100F3000000A7C44E35C7D242404121914145B0031
:100F4000A218884201D3521C00E0400049420C46DE
:100F50005C4324115C43DB016415E318040A5C4321
:100F6000C502200D0C4644436419250A5D43230342
:100F7000EC0C0D46654300030019EB184C42A342EC
:100F800001D35B18401CD4052018002B07D05B0050
:100F9000C91804D3401C002901D1400840003F215A
:100FA00089048A4209D3002A08DC1106090F04D0FB
:100FB000032149074018C00FC007F0BD01224100BE
:100FC000120689187F2252069142F6D2052149075E
:100FD000C84201D59010F0BDFF20C005F0BD002F24
:100FE00000DA32461648AA4207D2AB4205D21902AD
:100FF000090E17D0F80FC007F0BDFF2563002D06BE
:10100000AB42F9D84900A942F6D8AB4201D1A94276
:10101000F2D0A94201D1002101E061004908D005C8
:101020000843F0BD1102090EFBD0FF200243D0059A
:10103000F0BD0A460146104654E700006A740000FD
:101040000000C07F10B501469E240002CA15A30708
:10105000002A02D01843002A04DBA21A002A0CDD61
:10106000D04010BD1206120E01D140004008A21A55
:1010700003D4D04040420028F3DDFF22480012068E
:10108000904201D9002010BDC817C043584010BD80
:101090001F22030C02D10F2200041CD0030E01D129
:1010A0000002083A030F01D10001121F830F01D182
:1010B0008000921E002801DB4000521ED20551180C
:1010C000021251181922904004D3491C002801D162
:1010D0004908490008467047C10FC90700D040427F
:1010E000012292071143D3E701218907D0E710B508
:1010F00000F050F9006810BD10B5044600F04AF940
:10110000046010BDFFB504460D4681B02430009048
:101110002168880604D51022E0699143216000E02F
:101120000120A84201DD471B00E000270498A169C7
:101130007A191018081AA0612078C00602D4204637
:10114000C046C046002608E003986268A168805D3A
:101150009047206A401C761C206204988642F3DB8C
:101160002078C0060AD52046C046C04606E0626820
:10117000A16830209047206A401C206238467F1EBC
:101180000028F4DC07E000986268A168405D9047A1
:10119000206A401C206228466D1E0028F3DC204691
:1011A000C046C0462078000602D5022005B0F0BD3A
:1011B0000120FBE701694A1C02610878704700B50D
:1011C0008FB0029100210591054901937944039163
:1011D000114604906846FFF729F90FB000BD0000E2
:1011E000E5FFFFFF0A681070521C0A607047014655
:1011F0008008081A02091018020A1018020C1018A8
:10120000C008820012185200891A01E0401C0A39F5
:101210000A29FBD27047000010B5FF231B064400CB
:101220009C421DD84C009C421AD80346124A0B43DC
:1012300007D4401A02D3EFF3008010BDEFF3008013
:1012400010BD081A06D2EFF3008001219043C907B0
:10125000084302E0EFF30080904380F3008810BD64
:101260000D231B041A4204D01146002000F096F80A
:1012700010BD00F035FB10BD00000090F0B5FF225E
:10128000C30D14469C43C30FDB07002C68D0CC0D64
:10129000A24365D0FF242404CD0925402E46002812
:1012A00001DA05221543C20922406AD0254268D0DE
:1012B0000124E40700020B02E70BE91B2043234350
:1012C0000225012609E0A943A04204D32943C01AFC
:1012D00001D5404271404000D21B8A42F3DC141415
:1012E0000D14AC4207DB984205D398422BD05B002B
:1012F000C01A40427140B0402AD2002826DB1ED0DE
:1013000020240346050C01D010242B461D0A01D0D1
:101310002B46083C1D0901D02B46241F9D0801D0F7
:101320002B46A41E5D0801D0A41E00E0E41A641C34
:10133000A0402304D21A002A0CDCC807F0BD4807DD
:10134000C00FC007F0BD8C07D5D5D0E74000D21B39
:10135000002AF2DDD201430A1343C8071843F0BD47
:10136000FF221206490091420FD8410014469142D3
:101370000BD8A14209D052429142F0D24100EED0A6
:1013800001E0002E01D01846F0BD0148F0BD00007C
:101390000000C07F004870471C1C0020C80212D506
:1013A0004803400F002804D0C803C04301218840EF
:1013B0007047EFF30080000100090321090708438B
:1013C00080F300887047002070470000F0B5F94DA9
:1013D0000C091E092C402E402F468BB0A7437DD010
:1013E000B543FCD0002E7AD0002CFCD00D465D40D9
:1013F000ED0F2543AC1BFF25AD0464190894C5020D
:10140000440DC9022143500DDC0204430120C007F2
:1014100001430443D2020191200C110C00958C462B
:10142000010423468B430A9161460904E24D8A4335
:101430000991010A7D4449198039097805464D43CF
:1014400001266D18F605751B6943C90C640B891CD0
:101450004C436418B5012C1B250C2E04B4434C439B
:101460004D43210C691889090591009DE90701D0B8
:101470000121C90704912C4601996708CD072F4324
:101480004C08059DE10B4D432D0C294666467543DE
:1014900002950D4645432E46029D7D1BB4410095A5
:1014A0000D465D4301942C0C2F040D465543AE466A
:1014B0002D0C3D43029503947546049C2D04641B3A
:1014C000049406D2029C039D641C0026754103957A
:1014D000029401AC70CC009F7D1B01E03EE162E113
:1014E000B44109040095079101940599A40861434A
:1014F000090C0C464443650BE7040C4666467443EE
:10150000A646640B3C43039502947446049DE40490
:101510002C1B049406D2029C039D641C002675417A
:101520000395029401AC70CC009F7D1BB4410194E3
:101530000C465C430095650FE7000C465443A646F5
:10154000640F3C43039502947446049DE4002C1BF5
:10155000049406D2029C039D641C002675410395E9
:10156000029401AC70CC009F7D1BB441AE09AF0664
:10157000049DC900AD092F43049DA406AD06049542
:10158000079D344369180791059DE10B4D432D0CD0
:1015900029466646754302950D4645432E46029DF3
:1015A0007D1BB44100950D465D4301942C0C2F0426
:1015B0000D465543AE462D0C3D43029503947546AA
:1015C000049C2D04641B049406D2029C039D641C9D
:1015D000002675410395029401AC70CC009F7D1BE1
:1015E000B44101948C050694079C890A6118009502
:1015F0000791019C0599A4086143090C0D464543D8
:10160000680BEF040D46644665436C0B3C43049F36
:10161000ED047D1BAC4602D20025641C6841009E8F
:10162000019D371B85410846584301950C46460FDE
:10163000C5005443600F28436546E4002C1B02D2CA
:101640000025401C6E41019D3F1AB5412846BD0949
:10165000800628438446A009BF064E020699A406C8
:1016600076180743079D002068410A99079019439F
:101670000020099B00906046FF1913434041E20F90
:1016800064003A43A4460446D71A8C41A04203D9C9
:101690000120009020463A46C70F94184041624608
:1016A000D20F2243644664000494009CBE4664004A
:1016B000D71AA446044602978C417746002F01D1E1
:1016C000A04204D96046401C8446029A2046C40FBA
:1016D000A64694184041049A0546D20F2243644618
:1016E0006400D31A8D417146002901D1A84202D964
:1016F00028461A46641C10430122002800D01643D5
:1017000061020020079B891904465C410223002CDA
:1017100002DB491813466441089DCE0A2D145D1959
:101720004B056705E10A2C050D1908993E43C907C9
:101730006940002B08D0934006D30022761C51410B
:10174000002B01D1760876001C4A002D43DB1542A0
:1017500041D0AA433FD030460BB0F0BD06180D462D
:101760004D41174C7642AC411AD395181C465C414A
:10177000134A6D42A24113D3012252054C00D442B8
:101780000AD15C00D4420BD04B4002D592021143E7
:10179000E2E749004908DFE75940C90FC90718E0E7
:1017A00000200849D8E7054801420DD10342F7D08F
:1017B000F2E700000000FF07C87000000000F07FA3
:1017C0000000E0FF0000F87F114859400143C012BB
:1017D00041400020C0E70123089A9B069A4205DC9D
:1017E000032252078918C90FC907B5E70522520716
:1017F0008918074A1143D2125140ADE770B515461A
:101800001C4602460B4628462146FFF7DFFD70BD09
:10181000FFFFFF7F30B50346CA02400D1043164D4F
:10182000164C0A1502D02043002A06DBAA1A002A09
:1018300012DDD040FF2A0BDC30BD5205520D01D124
:1018400040004008AA1A07D4D0404042FF2A01DDD8
:10185000002030BD0028FCDD4A00002B01D0012013
:1018600000E00020101801225205D042F0D8C8171D
:10187000C043604030BD00001E0400000000008036
:1018800070B505464800440D124B0020002C0AD0CC
:10189000634008D09A4206DA6642B24203DD12057E
:1018A0004019514170BD002C08D0002B09D0C90F40
:1018B000C907002AF6DB084A114370BDC90FC907E2
:1018C00070BD28460A03104302D00020034970BDB2
:1018D000284670BDFF0700000000F07F0000F87F81
:1018E00010B5024800F02FF810BD00000000C07FC6
:1018F000004870471C1C00207546FFF7F9FFAE46F4
:10190000050069465346C008C000854618B020B59A
:10191000FEF796FC60BC00274908B6460026C0C505
:10192000C0C5C0C5C0C5C0C5C0C5C0C5C0C5403D97
:1019300049008D46704710B50446C046C046204653
:10194000FEF716FC10BD10B50C461107090F09294A
:1019500004D00A290AD008290CD104E01146082035
:10196000FFF71CFD06E0510606D501E0510601D542
:101970000120C007214610BDD10607D50101090984
:10198000CC084907000E0006044309E0410F20027D
:101990004907000A0143200E00061D22D1410143E0
:1019A0000846E7E701491820ABBEFEE72600020023
:1019B0007047000010B5024800F03CFA10BD00006E
:1019C000B800002010B5024800F034FA10BD000045
:1019D0001401002070B50446217808460838142107
:1019E000FEF736FE0546206C800880000549401849
:1019F000606404488030A0641C202840012181409C
:101A0000E16470BD0008024001794A1E9200064B55
:101A1000D2180265044A403242654A1E93079B0F62
:101A200001229A4082657047000902407047704762
:101A3000FEB504460D461646002000902869012890
:101A400000D100BF2868042800D100BF00BF607922
:101A5000012801D10220FEBD0120607100BF0220DB
:101A600020712868042857D1002E1ED100F0DCFB1D
:101A700000900CE000F0D8FB0099401A012806D92C
:101A8000206908210843206103202071E3E72068D2
:101A9000406B0121C90308400028EBD1012000F070
:101AA000B7FAA8692168086419E00CE000F0BCFBF3
:101AB0000099401A012806D92069082108432061AD
:101AC00003202071C7E72068406BC00FC0070028C3
:101AD000ECD1012000F09CFAA869216848642068D4
:101AE000806C102131403B4A8A40904310223240A2
:101AF000E96991400843216888642068C06C10211E
:101B000032460A40FF219140884310223240296A20
:101B1000914008432168C8642869012813D12068CE
:101B2000876B1020314601401F2088403946814391
:101B30000F466869019010203146014001988840A5
:101B40000743206887632068C76B10203146014037
:101B500007208840394681430F46A9682868084312
:101B6000E9680843019010203146014001988840FF
:101B700007432068C76320680168102030400122B5
:101B8000920382409143206801602068076810201A
:101B90003146014010488840394681430F46686805
:101BA0000190102031460140019888400743206889
:101BB00007602068016810203040C02282409143B5
:101BC000206801600120207100BF0020607100BF0B
:101BD00000BF40E7FF030000FE0F0000704710B594
:101BE000044620680068012149030840884217D153
:101BF0002068406B0840884212D10420207120697F
:101C00000121084320614803216848632068006877
:101C1000012109038843216808602046FFF7DEFFA1
:101C200020680068012149070840884217D12068D0
:101C3000406B0840884212D10420207120690221A3
:101C40000843206108072168486320680068012173
:101C500009078843216808602046FFF7E8FE10BDA9
:101C600010B50446002C01D1012010BD20790028B8
:101C700003D16071204600F009F802202071002095
:101C80002061012020710020EFE7000010B586B030
:101C90000446142101A8FEF7D9FC37492068884280
:101CA00068D100BF3548C06B01214907084333495B
:101CB000C8630846C06B49040840009000BF00BFDD
:101CC00000BF2E48406B012108432C494863084659
:101CD000406BC007C00F009000BF00BF30200190D4
:101CE000032002900020039001A90520000700F0C6
:101CF000A5F923482349086008204860102121489D
:101D000081600021C1608021016100214161816108
:101D1000C161016200F01EF9002801D0FFF786FEC4
:101D200000BF1848A060846200BF154814301649EF
:101D30000860092048601021134881600021C160BB
:101D400080210161002141618161C161016200F076
:101D500001F9002801D0FFF769FE00BF0A48E060E2
:101D6000846200BF00220321112000F0FFFA11203D
:101D700000F0F0FA06B010BD007400400010024000
:101D800008000240B80000201401002038B50446C5
:101D90000020009020680090002905D110460830EE
:101DA000009D4019009004E010461430009D401939
:101DB000009000980360002038BD10B5024600BFB7
:101DC0005079012801D1022010BD0120507100BFBF
:101DD000022010711068006810230B4001249C4001
:101DE00020431368186000290CD1106800683E2356
:101DF0001840022815D11068406801231843136861
:101E000058600EE0106800681F235B04184002232E
:101E10008B40984205D1106840680223184313682C
:101E200058600120107100BF0020507100BF00BF3A
:101E3000CAE7000070B50446454805682068066892
:101E40001C20216C0140042088402840002820D01C
:101E50000420304000281CD0206800682021084061
:101E6000002805D1206800680421884321680860A3
:101E7000374840681C22216C114004228A401043DC
:101E800033494860206B002860D02046216B88478A
:101E90005CE01C20216C0140022088402840002882
:101EA00028D002203040002824D02068006820215B
:101EB0000840002808D1206800680A21884321686A
:101EC0000860012125200155214841681C22206C11
:101ED00010400222824011431D48416000BF002192
:101EE0002420015500BFE06A00282FD02046E16A77
:101EF00088472BE01C20216C0140082088402840A6
:101F0000002823D00820304000281FD02068006817
:101F10000E218843216808600D4841681C22206C0E
:101F20001040012282401143094841600120E063D2
:101F300001212520015500BF00212420015500BFAB
:101F4000606B002802D02046616B884770BD00009E
:101F50000000024010B50446002C01D1012010BD44
:101F6000294A2168881A1421FEF772FB8000206438
:101F70000221252001552068006824490840216875
:101F80000860E168A0680843216908436169084363
:101F9000A1690843E1690843216A08432168096887
:101FA0000843216808602046FFF714FD01218903DA
:101FB000A068884201D1002060602079616C0860CF
:101FC000A16CE06C4860606800280CD06068042850
:101FD00009D82046FFF718FD0020216D0860616DCB
:101FE000A06D486003E0002020656065A0650020CA
:101FF000E06301212520015500BF00212420015567
:1020000000BF0020ABE70000080002400F80FFFF88
:1020100070B5044600F008F906462546681C0028FD
:1020200002D0054800682D1800BF00F0FDF8801BA5
:10203000A842FAD370BD00004400002070B50346EA
:102040000022D5E0012696400C683440002C71D067
:102050004D68022D02D04D68122D15D1D508AE0065
:102060001D462035A8595507EE0E0F25B5400646EA
:10207000AE4330465607F60E0D69B5402843D508E5
:10208000AD001E4620367051186856000325B54035
:102090000646AE4330460D79AD07AD0F5600B5404C
:1020A000284318604D68012D08D04D68022D05D0D9
:1020B0004D68112D02D04D68122D18D19868560028
:1020C0000325B5400646AE4330465600CD68B540C0
:1020D000284398605868012595400646AE4330462F
:1020E00010264D6835402D09954028435860D86822
:1020F00056000325B5400646AE43304656008D686F
:10210000B5402843D860012636074D683540B542B2
:102110006DD13A4D9608B600A8599507EE0E0F25D9
:10212000B5400646AE43304605252D07AB4202D1E9
:10213000002510E05BE0324DAB4201D101250AE001
:10214000304DAB4201D1022505E02F4DAB4201D10C
:10215000032500E005259607F60EB5402843274DD8
:102160009608B600A851254D203528680546A54398
:102170002846012636044D683540B54202D1054651
:10218000254328461D4D2035286068680546A5432F
:102190002846012676044D683540B54202D10546F1
:1021A00025432846154D20356860144D603D28684C
:1021B0000546A5432846012636054D683540B542FB
:1021C00002D10546254328460C4D603D28606868CD
:1021D0000546A5432846012676054D683540B5429B
:1021E00002D1054625432846044D603D6860521CD7
:1021F0000D68D540002D00D024E770BD6018024066
:102200000004005000080050000C005042690A40D1
:10221000002A01D0816200E081617047002A01D06C
:10222000816100E0816270470148006870470000EA
:102230003C00002003480068034909684018014930
:10224000086070473C0000204400002010B50024C6
:1022500008480068FF210131084306490860002052
:1022600000F00AF8002801D0012401E000F04AF84B
:10227000204610BD0020024070B586B004460025FF
:102280000026002221460F2000F070F80F2000F0F9
:1022900061F800BF1748C06B012108431549C863A6
:1022A0000846C06BC007C00F009000BF00BF01A967
:1022B00002A800F0F5FA00F017FB05460E49284683
:1022C000FEF7C6F9461E012080070C4908600C493C
:1022D0000A48C160466000210161816000F0ACFEE7
:1022E000002804D1054800F03BFF06B070BD012076
:1022F000FBE700000010024040420F00EC0200200B
:10230000E703000008B500BF114800680121084339
:102310000F49086008460068C007C00F009000BF62
:1023200000BF00BF0A484038C06B89050843084910
:102330004039C8630846C06B09040840009000BFDC
:1023400000BF00220321481F00F010F808BD000064
:102350004010024000BFC206D20E01219140024A45
:10236000116000BF7047000000E100E070B5044656
:102370000D4616462946204601F0DCFC70BD0000E3
:1023800070B5044611480068032149028843204380
:102390000E4908604815844216D10D490968062285
:1023A000514308460B49FEF753F9451C05E0002D43
:1023B00001D06D1E01E0032070BD04484069012179
:1023C000890208408842F2D00020F5E70070004002
:1023D0004800002040420F00FEB5044600270020C0
:1023E0000290012149042068084088427BD10020E6
:1023F0000190B348C06BC902084000280ED100BF4D
:10240000AF48C06B0843AE49C8630846C06B0904B7
:102410000840009000BF00BF01200190A94800685B
:10242000FF2101310843A7490860FFF7FDFE06467A
:1024300006E0FFF7F9FE801B022801D9032706E01A
:10244000A0480068FF21013108400028F1D000BFFA
:10245000002F4BD19A484030C569032109020D4035
:10246000002D1AD0206BA84217D095484030C06983
:102470008843054692484030C06901210904084359
:102480008F494031C8610846C06901210904884369
:102490008B494031C8610846C561E807C00F002874
:1024A00013D0FFF7C1FE064607E0FFF7BDFE801B15
:1024B0008549884201D9032706E081484030C06938
:1024C000022108400028F0D000BF002F0CD17C482A
:1024D0004030C069032109028843216B08437849D1
:1024E0004031C86103E00DE0029700E002970198D7
:1024F000012806D17248C06B012109078843704941
:10250000C86300BF2078C007C00F002809D06C48FE
:102510004030406980088000616808436849403164
:102520004861022120680840022809D164484030EF
:1025300040690C218843A1680843614940314861E2
:1025400020212068084020280AD15D484030406999
:10255000032189028843E1680843594940314861B1
:10256000012149022068084088420AD1544840307D
:102570004069032189048843A169084350494031D7
:102580004861012189022068084088420AD14C48EC
:1025900040304069032109058843E16908434849FF
:1025A0004031486140212068084040280AD1444811
:1025B00040304069032109038843216908434049A9
:1025C000403148610121890320680840884213D1C5
:1025D0003B484030406980008008216A0843384900
:1025E000403148610906206A884205D13448C068F4
:1025F000891308433249C8600121C9042068084092
:10260000884209D12E484030406940218843616AA0
:1026100008432B49403148610121490520680840A1
:10262000884214D126484030406949008843A16A55
:10263000084323494031486101218905A06A884245
:1026400005D11F48C068890008431D49C8600121A1
:10265000890520680840884213D1194840304069F4
:1026600089008843E16A08431549403148610121E6
:102670000906E06A884204D11148C068084310493D
:10268000C8600121C90220680840884215D10C4861
:102690004030406903218903884361690843084940
:1026A00040314861012189036069884205D10448AD
:1026B000C068890008430249C8600298FEBD000056
:1026C00000100240007000408813000070B50446FE
:1026D0000D46002C01D1012070BD6B4800684007F9
:1026E000400FA84218D268480068C008C0002843BC
:1026F00065490860FFF798FD064607E0FFF794FD7F
:10270000801B6249884201D90320E5E75E480068E2
:102710004007400FA842F1D102212068084002285A
:1027200015D1042120680840042807D15848806842
:102730000721090388434018554988605448806838
:102740000F2109028843A168084351498860207815
:10275000C007C00F002854D06068012808D14C4839
:10276000006801214904084000282ED10120B3E768
:102770006068022808D146480068012149060840DF
:10278000002822D10120A7E76068002808D140482E
:102790000068012189020840002816D101209BE72A
:1027A0006068032808D13A484030006A0221084096
:1027B00000280AD101208FE735484030C069022146
:1027C0000840002801D1012086E731488068C00810
:1027D000C000616808432E498860FFF725FD064662
:1027E00007E0FFF721FD801B2849884201D903201B
:1027F00072E727488068382108406168C90088422C
:10280000EFD1214800684007400FA84218D91E4860
:102810000068C008C00028431B490860FFF704FD9A
:10282000064607E0FFF700FD801B1849884201D9E2
:10283000032051E7144800684007400FA842F1D137
:10284000042120680840042808D111488068072125
:1028500009038843E16808430D49886000F058F88F
:102860000B4989680F2212021140090A8900094A9E
:10287000515CC906C90EC84007490860074800688E
:10288000FFF7FAFC28E70000002002408813000050
:102890000010024040830008480000204000002053
:1028A000072202600B4A92685207520F4260094A9F
:1028B00092680F231B021A408260064A926807231F
:1028C0001B031A40C260044A12685207520F0A6082
:1028D00070470000001002400020024001480068DC
:1028E000704700004800002000B5FFF7F7FF0649D9
:1028F0008968072212031140090B8900034A515CC1
:10290000C906C90EC84000BD0010024080830008FF
:10291000FEB5354880683821084000280DD132487E
:10292000006809020840C10A0120884000902F4831
:102930000099FDF78DFE044654E02B48806838214D
:102940000840082801D12A4C4CE0274880683821EB
:102950000840102834D12448C0688607B60F2248A2
:10296000C068702108400009401C0190022E0FD061
:10297000032E0CD11E480199FDF76AFE1A49C96859
:102980007F2212021140090A484305460DE000BFAC
:1029900016480199FDF75CFE1349C9687F221202AF
:1029A0001140090A4843054600BF00BF0E48C068F1
:1029B000400F471C39462846FDF74AFE044611E001
:1029C0000948806838210840202801D1840209E0A4
:1029D0000548806838210840182802D17D24240247
:1029E00000E000242046FEBD001002400024F40058
:1029F00000127A00FEB50446002C01D10120FEBD74
:102A00002078C007C00F00286FD0F74887683821AA
:102A10000F40C0688607B60F102F01D1032E01D0DA
:102A2000082F0BD1F0480068012149040840002814
:102A30005BD06068002858D10120E0E700BF012189
:102A400009046068884205D1E74800680843E64900
:102A5000086021E005210904606888420ED1E2483F
:102A60000068012189040843DF49086008460068BE
:102A7000012109040843DC4908600DE0DA480068D8
:102A8000012109048843D8490860084600680121EB
:102A900089048843D449086000BF6068002812D0C8
:102AA000FFF7C2FB054606E0FFF7BEFB401B6428AC
:102AB00001D90320A3E7CC4800680121490408405C
:102AC0000028F1D011E0FFF7AFFB054606E0FFF765
:102AD000ABFB401B642801D9032090E7C248006883
:102AE0000121490408400028F1D102212068084052
:102AF000022873D1BC488068382108400746BA488C
:102B0000C0688607B60F102F01D1022E01D0002F0A
:102B100036D1B5480068012189020840002804D058
:102B2000E068002801D1012069E7AF4840687F21B3
:102B300009028843616909020843AB494860002FD4
:102B400016D1084600680721C90288432169084355
:102B5000A5490860084600680722D2021040C20A50
:102B6000012090400146A148FDF772FDA049086090
:102B7000A0480068FFF780FB002849D001203EE70D
:102B8000E06800282BD0984800680721C9028843D4
:102B9000216908439449086008460068891508437C
:102BA00091490860FFF740FB054606E0FFF73CFB54
:102BB000401B022801D9032021E78B48006801212E
:102BC000890208400028F1D0874840687F21090227
:102BD00088436169090208438349486018E08248D4
:102BE0000068FF21013188437F490860FFF71CFB23
:102BF000054606E0FFF718FB401B022801D9032019
:102C0000FDE6794800680121890208400028F1D1D9
:102C1000082120680840082849D173488068382175
:102C2000084018280BD170484030006A0221084043
:102C300000283CD0A069002839D10120DFE6A06936
:102C400000281AD068484030006A012108436649CC
:102C500040310862FFF7E8FA054606E0FFF7E4FABC
:102C6000401B022801D90320C9E65F484030006AB2
:102C7000022108400028F1D019E05B484030006A8A
:102C800040084000584940310862FFF7CDFA054638
:102C900006E0FFF7C9FA401B022801D90320AEE67F
:102CA00051484030006A022108400028F1D1042137
:102CB0002068084004287CD1002001904A488068A0
:102CC0003821084020280BD147484030C0690221F4
:102CD000084000286ED0A06800286BD101208EE645
:102CE0004148C06B010F01208843002810D000BF6D
:102CF0003D48C06B0121090708433B49C8630846AA
:102D0000C06B09040840009000BF00BF0120019083
:102D100039480068FF2101310840002816D13648A3
:102D20000068084334490860FFF77EFA054606E06C
:102D3000FFF77AFA401B022801D903205FE62E48EC
:102D40000068FF21013108400028F1D000BFA068D1
:102D5000012808D124484030C06901210843224994
:102D60004031C86120E0A06805280FD11E484030DE
:102D7000C069042108431C494031C8610846C06944
:102D80000121084318494031C8610DE01648403020
:102D9000C0694108490014484030C161C06904213C
:102DA000884311494031C86100BFA068002816D08F
:102DB00001E040E03EE0FFF737FA054607E0FFF7A5
:102DC00033FA401B0D49884201D9032017E6064813
:102DD0004030C069022108400028F0D01EE0FFF713
:102DE00023FA054614E00000001002400024F4001D
:102DF00048000020400000200070004088130000C0
:102E0000FFF712FA401B6849884201D90320F6E512
:102E10006648C069022108400028F1D101980128C4
:102E200008D162484038C06B0121090788435F49D7
:102E30004039C86300BFE06900285CD05B48403877
:102E400080683821084010286FD0E069022853D1EB
:102E500056484038006801210906884353494039E3
:102E60000860FFF7E1F9054606E0FFF7DDF9401BD2
:102E7000022801D90320C2E54C48403800680121EE
:102E8000490608400028F0D1616A206A0843A16A17
:102E900009020843E16A0843216B0843616B084358
:102EA00042494039C968424A114008433F494039C4
:102EB000C860084600680121090608433B494039BB
:102EC00008600846C0680904084338494039C860AA
:102ED000FFF7AAF9054606E0FFF7A6F9401B02280E
:102EE00001D903208BE531484038006801214906AB
:102EF00008400028F0D054E02C48403800680121F8
:102F0000090688432949403908600846C068800896
:102F10008000C8600846C0682649084023494039F7
:102F2000C860FFF781F9054607E00FE0FFF77CF97D
:102F3000401B022801D9032061E51C484038006885
:102F40000121490608400028F0D12AE0E069012863
:102F500000D154E515484038C668B107890F206A8A
:102F600081421CD170203040616A884217D17F2095
:102F700000023040A16A0902884210D11F2040049B
:102F80003040E16A88420AD1072040063040216B78
:102F9000884204D1710F4907606B814201D0012042
:102FA0002DE500202BE500008813000040100240B2
:102FB0008C80C111FFFFFEEE704770477047000024
:102FC00030B502460B4600BF3C20805C012801D191
:102FD000022030BD01253C20855400BF02253D2044
:102FE00085541068416810688468124D1068A842C2
:102FF00006D10F252D050846A84301465868014310
:1030000070250846A84301461868014380252046DC
:10301000A8430446986804431068416010688460BF
:1030200001253D20855400BF00253C20855400BF6C
:103030000020CEE7002C014010B50446002C01D141
:10304000012010BD3D20005D002805D100213C205D
:103050000155204600F00CF802213D200155211DAC
:10306000206800F0DBFE01213D2001550020E8E74B
:1030700010B586B00446142101A8FDF7E7FA3449DB
:103080002068884232D100BF3248C06B0221084319
:103090003049C8630846C06B02210840009000BF59
:1030A00000BF00BF2B48406B0121084329494863FA
:1030B0000846406BC007C00F009000BF00BFC02093
:1030C00001900220029000200390049001200590BE
:1030D00001A905200007FEF7B1FF002203211020FF
:1030E000FFF744F91020FFF735F92FE01A4920685F
:1030F000884216D100BF1748C06B102108431549FC
:10310000C8630846C06B10210840009000BF00BF94
:10311000002203211120FFF729F91120FFF71AF9E6
:1031200014E00E492068884210D100BF09484030A1
:103130000068C91308430749403108600846006821
:103140000121C9030840009000BF00BF06B010BDB8
:103150000004004000100240001000400020004029
:1031600001460868C068012318430B68D8600868E6
:103170008068084B18400246062A08D0D81F8242B1
:1031800005D008680068012318430B681860002008
:103190007047000007000100F8B504460D4600BF67
:1031A0003C20005D012801D10220F8BD01213C2016
:1031B000015500BF02213D2001552068866839482D
:1031C0000640FF2109023046884306462068866093
:1031D0002868502834D00CDC202851D004DC00288A
:1031E0004CD0102852D14AE030284AD040284DD146
:1031F0003AE060282ED0702807D001210903401A38
:1032000002D0401A42D10DE041E0EB686A68A9683B
:10321000206800F06CFE20688668772006432068EE
:10322000866034E0EB686A68A968206800F05FFE99
:10323000206880680121890308432168886026E0AE
:10324000EA686968206801F035F85021206800F0CC
:103250005DFE1CE0EA686968206801F07FF8602183
:10326000206800F053FE12E0EA686968206801F007
:1032700021F84021206800F049FE08E000BF00BFAF
:1032800000BF2968206800F041FE00E000BF00BFD9
:1032900001213D20015500BF00213C20015500BF08
:1032A000002082E788FFCEFFF8B505463049286840
:1032B00088425BD1287F002802D10024012706E044
:1032C000287F042802D10024002700E0F8BD294807
:1032D0000068406B6100284A505260001146085A4D
:1032E0006100264A515A88420ADA60001146085A9B
:1032F0002349081A6100204A515A4018861907E0EC
:1033000060001D49085A61001C4A515A401A86192A
:10331000212E00D9DAE7A0001A4908588019A10027
:10332000184A50501848005D401C17490855600065
:103330001149085A6100114A50521348005D08288B
:1033400014DBA0000F4908584003000C61000F4A2D
:1033500050520820384301460D48006803F044FBF2
:10336000002009490855A100064A505000BFADE7AA
:1033700000040040FC010020340000203800002040
:10338000FFFF00002C000020240000202600002069
:1033900008000020F8B504460D46164600BF3C2044
:1033A000005D012801D10220F8BD01213C2001551A
:1033B00000BF02213D200155002E12D1EB686A6842
:1033C0002968206800F090FF206880690C218843FC
:1033D0002168886120688069A9680843216888613C
:1033E0003FE0042E14D1EB686A682968206800F079
:1033F000CEFF2068806903218902884321688861A3
:1034000020688069A968090208432168886128E06A
:10341000082E12D1EB686A682968206800F0DBFF8B
:103420002068C0690C2188432168C8612068C06990
:10343000A96808432168C86113E0EB686A682968D5
:10344000206800F0EBFF2068C069032189028843EF
:103450002168C8612068C069A96809020843216819
:10346000C86101213D20015500BF00213C200155CC
:1034700000BF002098E710B50446002C01D10120C0
:1034800010BD3D20005D002805D100213C200155E4
:10349000204600F00CF802213D200155211D206836
:1034A00000F0BCFC01213D2001550020E8E77047F9
:1034B00070B504460E46002E06D0042E0BD0082E02
:1034C00010D00C2E1CD114E02068C06802210843E3
:1034D0002168C86015E02068C0680421084321689D
:1034E000C8600EE02068C068082108432168C860F1
:1034F00007E02068C068102108432168C86000E028
:1035000000BF00BF01223146206800F0DFFC2068C8
:10351000856807490D40062D08D0C81F854205D093
:10352000206800680121084321680860002070BD00
:103530000700010010B50446206800690221084018
:10354000400800281CD02068C068084040080028B7
:1035500016D0481F21680861012020772068806903
:103560008007800F002803D02046FFF79DFE05E06E
:10357000204600F009F9204600F0E5F90020207708
:103580002068006904210840800800281DD02068B8
:10359000C06808408008002817D0C8432168086127
:1035A0000220207720688069032109020840002852
:1035B00003D02046FFF778FE05E0204600F0E4F84F
:1035C000204600F0C0F9002020772068006908211B
:1035D0000840C00800281CD02068C0680840C00807
:1035E000002816D0C843216808610420207720688D
:1035F000C0698007800F002803D02046FFF754FEE3
:1036000005E0204600F0C0F8204600F09CF90020BC
:1036100020772068006910210840000900281DD08B
:103620002068C06808400009002817D0C8432168F6
:103630000861082020772068C0690321090208403A
:10364000002803D02046FFF72FFE05E0204600F0BB
:103650009BF8204600F077F9002020772068006969
:10366000C007C00F01214840484000280CD0206806
:10367000C068084048404840002805D0C81E21685E
:103680000861204600F0A0F9206800698021084008
:10369000C00900280BD02068C0680840C009002875
:1036A00005D0C843216808612046FFF786FC2068E2
:1036B0000069FF2101310840000A00280CD0206871
:1036C000C06880210840C009002805D0164821683C
:1036D00008612046FFF770FC20680069402108401F
:1036E000800900280BD02068C068084080090028A5
:1036F00005D0C84321680861204600F08BF9206896
:10370000006920210840400900280BD02068C068CB
:1037100008404009002805D0C843216808612046B8
:10372000FFF74CFC10BD0000FFFEFFFF10B586B098
:103730000446142101A8FCF789FF1049206888423B
:103740001AD100BF0E48406B042108430C4948635E
:103750000846406B04210840009000BF00BF88026B
:103760000190022002900020039004900220059016
:1037700001A90448FEF762FC06B010BD002000401D
:103780000010024000080050704770B504460D4616
:10379000164600BF3C20005D012801D1022070BD0B
:1037A00001213C20015500BF02213D2001550C2E76
:1037B00054D006DC002E09D0042E1ED0082E7ED157
:1037C00035E0102E64D0142EF9D179E02946206816
:1037D00000F0A8FB206880690821084321688861FF
:1037E0002068806904218843216888612068806995
:1037F00029690843216888617DE02946206800F036
:10380000E9FB206880690121C902084321688861B9
:1038100020688069012189028843216888612068C5
:1038200080692969090208432168886163E02946A3
:10383000206800F02FFC2068C06908210843216837
:10384000C8612068C069042188432168C861206874
:10385000C069296908432168C8614CE0294620688D
:1038600000F076FC2068C0690121C9020843216884
:10387000C8612068C0690121890288432168C86144
:103880002068C0692969090208432168C86132E0DB
:103890002946206800F09CFC2068406D0821084300
:1038A000216848652068406D042188432168486587
:1038B0002068406D29690843216848651BE019E0CC
:1038C0002946206800F0BCFC2068406D0121C90237
:1038D0000843216848652068406D012189028843BA
:1038E000216848652068406D2969090208432168FC
:1038F000486500E000BF00BF01213D20015500BF29
:1039000000213C20015500BF002048E710B50446C7
:10391000002C01D1012010BD3D20005D002805D103
:1039200000213C200155204600F00CF802213D20EA
:103930000155211D206800F071FA01213D2001553B
:103940000020E8E77047704770B504460E46012234
:103950003146206800F0BAFA1649206888420BD038
:1039600015492068884207D014492068884203D04E
:1039700013492068884201D1012000E0002000287E
:1039800006D02068406C0121C903084321684864BF
:10399000206885680B490D40062D08D0C81F854258
:1039A00005D02068006801210843216808600020D4
:1039B00070BD0000002C0140004001400044014067
:1039C000004801400700010070B504460121890745
:1039D0002068884202D1FEF72DFC13E00A492068D6
:1039E00088420FD1094801F0B3FE05462B4600225C
:1039F00011460748FEF7CAF92B4600221021044859
:103A0000FEF7C4F970BD000000100040BC020020A9
:103A1000A40000207047014600BF7C20405C0128C4
:103A200001D10220704701237C20435400BF24238E
:103A30008020435008680268086800684008400019
:103A40000B68186001235B0710469843024600206C
:103A500048660868026020238020435000BF00238E
:103A60007C20435400BF0020DCE770B504460D46BF
:103A700000BF7C20005D012801D1022070BD012122
:103A80007C20015500BF2421802001512068066858
:103A9000206800684008400021680860206880684D
:103AA000072149068843284321688860204600F0A2
:103AB000DDFC2068066020218020015100BF00212C
:103AC0007C20015500BF0020D8E770B504460D46A4
:103AD00000BF7C20005D012801D1022070BD0121C2
:103AE0007C20015500BF24218020015120680668F8
:103AF00020680068400840002168086020688068ED
:103B0000C000C008284321688860204600F0AEFC51
:103B10002068066020218020015100BF00217C2008
:103B2000015500BF0020D9E710B50446002C01D193
:103B3000012010BDA069002800D000E000BF802057
:103B40000059002805D100217C200155204600F0B5
:103B50002DF8242180200151206800684008400091
:103B600021680860204600F075FD012800D1E0E7DB
:103B7000A06A002802D0204600F0BAFC2068406805
:103B80000921C902884321684860206880682A2189
:103B90008843216888602068006801210843216803
:103BA0000860204600F01CFDC3E7000010B586B099
:103BB0000446142101A8FCF749FD184920688842F1
:103BC0002AD100BF1648C06B490108431449C86395
:103BD0000846C06B012109050840009000BF00BFE6
:103BE00000BF0F48406B012108430D494863084658
:103BF000406BC007C00F009000BF00BF0C200190B9
:103C0000022002900020039004900620059001A954
:103C100005200007FEF712FA06B010BD0080004034
:103C200000100240FFB583B004460D4617468020C1
:103C30000059202878D1002D01D0002F02D1012079
:103C400007B0F0BD01210903A068884208D12069AE
:103C5000002805D1E807C00F002801D00120EFE7B8
:103C600000BF7C20005D012801D10220E8E701218E
:103C70007C20015500BF0021882001512121802096
:103C80000151FEF7D1FA01905420075356200753F3
:103C900001210903A068884205D12069002802D1CA
:103CA0000026029502E02E460020029021E00698B0
:103CB0000090002280212046019B01F01DFB00287E
:103CC00001D00320BCE7002E09D102980088C0056E
:103CD000C00D216888620298801C029003E0307851
:103CE00021688862761C5620005B401E81B25620F7
:103CF00001535620005B0028D9D10698009000227D
:103D000040212046019B01F0F7FA002801D0032052
:103D100096E720218020015100BF00217C20015521
:103D200000BF00208CE7FFE7022089E700BFFEE725
:103D30007047000010B5002819DA1A4A03071B0F54
:103D4000083B9B089B00D2588307DC0EFF23A3404F
:103D50009A438B071B0E8407E40EA3401A43114BB2
:103D60000407240F083CA408A4001A5118E00E4AC6
:103D700003231B02D21883089B00D2588307DC0E52
:103D8000FF23A3409A438B071B0E8407E40EA34036
:103D90001A43054B032424021B198408A4001A515A
:103DA00010BD00001CED00E000E100E070470000E5
:103DB00010B5FCF7F7F9044603F02EFF002803D0F6
:103DC00001200007024948602046FCF7EFF910BDCA
:103DD00000ED00E00120C006014988607047000046
:103DE00000ED00E010B50248FFF7A4FB10BD000095
:103DF000EC02002010B50248FFF79CFB10BD00004C
:103E0000FC01002010B50348FFF794FB0248FDF7C2
:103E1000E6FE10BD3C020020A400002010B50268A0
:103E2000244B984206D001239B07984202D0224B94
:103E3000984205D170241346A3431A464B681A438F
:103E40001C4B984212D001239B0798420ED01A4B6C
:103E500098420BD0194B984208D0194B984205D084
:103E6000184B984202D0184B984206D103242402E2
:103E70001346A3431A46CB681A4380241346A34330
:103E80004C6923431A4602608B68C3620B688362E5
:103E9000084B984208D00A4B984205D0094B9842EB
:103EA00002D0094B984201D10B690363012343619E
:103EB00010BD0000002C0140000400400020004024
:103EC00000400140004401400048014070B5CD066B
:103ED000ED0E0124AC402346046A9C430462046A4C
:103EE000CE06F60E1546B5402C43046270BD70B583
:103EF0000C468168FF2636020D46B54329461D0251
:103F0000154325432943816070BD00000A4681683E
:103F1000034B194007231343194381607047000086
:103F20008FFFCFFF70B5056A6D086D000562026AEC
:103F300043688469224D2C40A408A4000D682C43DA
:103F400002261546B5432A468D682A431D4DA842D0
:103F500000D10BE01C4DA84200D107E01B4DA84248
:103F600000D103E01A4DA8420AD100BF0826154629
:103F7000B5432A46CD682A4304261546B5432A464A
:103F8000104DA84208D0104DA84205D00F4DA842B0
:103F900002D00F4DA8420CD1FF2601361D46B54375
:103FA0002B4676001D46B5432B464D692B438D6944
:103FB0002B43436084614D684563026270BD00001D
:103FC0008FFFFEFF002C01400040014000440140F3
:103FD0000048014070B5056A1026B5430562026AC3
:103FE00043688469264D2C40032636022546B54396
:103FF0002C460D682D022C4320261546B5432A4633
:104000008D682D012A431F4DA84200D10BE01E4DA3
:10401000A84200D100BF1D4DA84200D100BF1C4DD9
:10402000A8420BD10AE080261546B5432A46CD6842
:104030002D012A4340261546B5432A46114DA84274
:1040400008D0114DA84205D0104DA84202D0104D05
:10405000A8420ED10126B6021D46B5432B46760076
:104060001D46B5432B464D69AD002B438D69AD0010
:104070002B43436084614D688563026270BD00001C
:10408000FF8FFFFE002C0140004001400044014032
:104090000048014070B5056AFF260136B543056248
:1040A000026A4368C469254D2C40A408A4000D6829
:1040B0002C4376001546B5432A468D682D022A43C7
:1040C0001F4DA84200D10BE01E4DA84200D100BFF9
:1040D0001D4DA84200D100BF1C4DA8420CD10BE0E1
:1040E0000126F6021546B5432A46CD682D022A431D
:1040F00076101546B5432A46114DA84208D0114DF9
:10410000A84205D0104DA84202D0104DA8420ED1B1
:10411000012636031D46B5432B4676001D46B543A2
:104120002B464D692D012B438D692D012B43436097
:10413000C4614D68C563026270BD00008FFFFEFF61
:10414000002C014000400140004401400048014073
:1041500070B5056A01263603B5430562036A4468F3
:10416000C269164D2A40032636021546B5432A4633
:104170000D682D022A43012676031D46B5432B46C2
:104180008D682D032B430E4DA84208D00D4DA8423B
:1041900005D00D4DA84202D00C4DA84207D10126F2
:1041A000B6032546B5432C464D69AD012C4344600A
:1041B000C2614D680564036270BD0000FF8FFFFEA1
:1041C000002C0140004001400044014000480140F3
:1041D00070B5056A01263604B5430562036A446872
:1041E000426D124D2A400D682A4376001D46B543A4
:1041F0002B460D892D042B430D4DA84208D00D4DA3
:10420000A84205D00C4DA84202D00C4DA84207D1BF
:10421000012636042546B5432C464D692D022C4314
:10422000446042654D688565036270BD8FFFFEFF87
:10423000002C014000400140004401400048014082
:1042400070B5056A01263605B5430562036A446800
:10425000426D134D2A400D682D022A4376001D46FB
:10426000B5432B460D892D052B430E4DA84208D092
:104270000D4DA84205D00D4DA84202D00C4DA842CC
:1042800007D10126B6042546B5432C464D69AD023B
:104290002C43446042654D68C565036270BD0000F3
:1042A000FF8FFFFE002C0140004001400044014010
:1042B0000048014070B50B461446026A056A6D0855
:1042C0006D0005628169F0260D46B543294625013A
:1042D00029430A261546B5432A4615461D432A4654
:1042E0008161026270BD0000F0B50C46066A760876
:1042F000760006628169056A154EB04209D0012632
:10430000B607B04205D0134EB04202D0124EB042B2
:1043100001D1012600E00026002E05D08908890081
:104320000E461643314601E001263143F0260F4682
:10433000B74339461E01F0273E4031430A262F4637
:10434000B7433D462640354381610562F0BD00001C
:10435000002C0140000400400040014070B50B46B5
:104360001446056A1026B54305628169026A0F2664
:1043700036030D46B543294625032943A026154695
:10438000B5432A461D012A438161026270BDF0B522
:104390000C46066A1027BE4306628169056A032639
:1043A00036020F46B7433946160231430F2636030D
:1043B0000F46B74339461E030F273F033E403143A4
:1043C000A0262F46B7433D462601A0273E40354351
:1043D00081610562F0BDF0B50C46066AFF27013722
:1043E000BE430662C169056A890889000E46164304
:1043F0003146F0260F46B74339461E01F0273E40AE
:104400003143052676022F46B7433D46260205274F
:104410007F023E403543C1610562F0BDF0B50C46F8
:10442000066A01273F03BE430662C169056A032687
:1044300036020F46B7433946160231430F2636037C
:104440000F46B74339461E030F273F033E40314313
:10445000052676032F46B7433D46260305277F03EF
:104460003E403543C1610562F0BD0000F0B585B046
:1044700004461BA103C9039102901BA103C901912A
:104480000090606E002805D101216A200153682048
:10449000015322E00827082204922068806807213F
:1044A00049060840450E20688068460F6A46915DBF
:1044B00002AA935D049A53431846FCF7D3F881B2DD
:1044C0006A2001536A46515D02AA525D7A43104642
:1044D000FCF7C8F881B26820015305B0F0BD0000B8
:1044E00001010103070100000804020408010101A1
:1044F000018DC907C90F002908D001684968012248
:1045000052049143C26A1143026851600222816AD7
:104510001140022907D101684968D2039143026B17
:104520001143026851600422816A1140042907D1B5
:104530000168496812049143426B1143026851605B
:104540000822816A1140082907D1016849681203CD
:104550009143826B1143026851601022816A1140BD
:10456000102907D10168896812029143C26B114377
:10457000026891602022816A1140202907D10168D8
:10458000896812029143026C1143026891604022D3
:10459000816A1140402915D101684968920391430D
:1045A000426C11430268516001221205416C914234
:1045B00008D101684968032252059143826C114376
:1045C000026851608022816A1140802907D1016808
:1045D000496812039143C26C1143026851607047ED
:1045E00038B50446002188200151FDF71DFE05461F
:1045F000206800680821084008280BD114482B4681
:10460000002289040090204600F076FE002801D0A8
:10461000032038BD206800680421084004280BD11D
:104620000B482B46002209050090204600F064FE4E
:10463000002801D00320ECE72021802001518420B4
:10464000015100BF00217C20015500BF0020E0E7A0
:10465000FFFFFF01F0B599B0044600260020079047
:104660000690F8492068884200D100E000BF216927
:10467000A068084361690843E16908430746606E22
:10468000074320680068F049084038432168086003
:1046900020684068032109038843E16808432168D2
:1046A0004860A769E7492068884201D0206A07432B
:1046B00020688068E54908403843216888602068A0
:1046C000C06A00090001616A08432168C86200BF2E
:1046D000DF492068884217D1DE4840698007800F93
:1046E000002806D0012808D0022804D0032808D1C9
:1046F00005E0002507E0022505E0042503E0082584
:1047000001E0102500BF47E0D3492068884217D157
:10471000D04840690C210840002806D0042808D061
:10472000082804D00C2808D105E0002507E0022560
:1047300005E0042503E0082501E0102500BF2BE07B
:10474000C6492068884201D1002525E0C449206877
:10475000884201D100251FE0BA49206888421AD159
:10476000BC484069032189020840002808D0012183
:104770008902401A08D0401A04D0401A08D105E036
:10478000002507E0022505E0042503E0082501E0F7
:10479000102500BF00E0102500BFAA49206888420C
:1047A00072D1002D06D0022D4BD0042D6DD0082DD6
:1047B0006CD1D4E0FEF798F80590606A002801D12A
:1047C000012038E0606A012801D1022033E0606AEC
:1047D000022801D104202EE0606A032801D10620BE
:1047E00029E0606A042801D1082024E0606A0528D5
:1047F00001D10A201FE0606A062801D10C201AE0CE
:10480000606A072801D1102015E0606A082801D1EC
:10481000202010E0606A092801D140200BE0606A86
:104820000A2801D1802006E0606A0B2802D1FF200F
:10483000013000E0012001460598FBF709FF0690D2
:10484000D5E0606A002801D101203BE0606A0128C0
:1048500001D1022036E0606A022801D1042031E053
:10486000606A032801D106202CE0606A042801D187
:10487000082027E0606A052801D10A2022E0606A4A
:10488000062804D10C201DE076E221E0ACE0606A4D
:10489000072801D1102015E0606A082801D12020E6
:1048A00010E0606A092801D140200BE0606A0A2804
:1048B00001D1802006E0606A0B2802D1FF20013080
:1048C00000E0012001466748FBF7C2FE06908EE03B
:1048D000FEF71EF80590606A002801D1012038E03B
:1048E000606A012801D1022033E0606A022801D108
:1048F00004202EE0606A032801D1062029E0606AC6
:10490000042801D1082024E0606A052801D10A208A
:104910001FE0606A062801D10C201AE0606A0728AF
:1049200001D1102015E0606A082801D1202010E094
:10493000606A092801D140200BE0606A0A2801D191
:10494000802006E0606A0B2802D1FF20013000E0E1
:10495000012001460598FBF77BFE069047E0606A60
:10496000002801D1012038E0606A012801D102202D
:1049700033E0606A022801D104202EE0606A032837
:1049800001D1062029E0606A042801D1082024E032
:10499000606A052801D10A201FE0606A062801D15B
:1049A0000C201AE0606A072801D1102015E0606A27
:1049B000082801D1202010E0606A092801D1402098
:1049C0000BE0606A0A2801D1802006E0606A0B28AB
:1049D00002D1FF20013000E0012001460120C00388
:1049E000FBF736FE069002E00120079000BF00BFF3
:1049F000069800280CD06068410041180698814252
:104A000004D8606801030698814202D20120079011
:104A100013E3002D06D0022D7DD0042D79D0082D72
:104A200078D139E1FDF760FF002103910290606ABF
:104A3000002801D101224BE0606A012814D1022232
:104A400046E0000000800040F369FFCFFFF4FF1153
:104A5000003801404010024000440040004800403F
:104A6000004C00400024F400606A022801D10422B6
:104A70002EE0606A032801D1062229E0606A04283A
:104A800001D1082224E0606A052801D10A221FE032
:104A9000606A062801D10C221AE0606A072801D159
:104AA000102215E0606A082801D1202210E0606A17
:104AB000092801D140220BE0606A0A2801D1802236
:104AC00006E0606A0B2802D1FF22013200E00122D9
:104AD0000023019203990298FBF7DCFBFF230133CB
:104AE00000220A9309920B910C901A46099BFBF73E
:104AF000B9FB62685208002380185941059104905F
:104B00006068024603900498FBF7C4FB064625E163
:104B100001E05EE01FE1606A002801D1012238E077
:104B2000606A012801D1022233E0606A022801D1C3
:104B300004222EE0606A032801D1062229E0606A7F
:104B4000042801D1082224E0606A052801D10A2244
:104B50001FE0606A062801D10C221AE0606A07286B
:104B600001D1102215E0606A082801D1202210E04E
:104B7000606A092801D140220BE0606A0A2801D14D
:104B8000802206E0606A0B2802D1FF22013200E099
:104B900001220023F84819460392FBF77BFBFF2311
:104BA000013300220E930D920F9110901A460D9B27
:104BB000FBF758FB626852080023801859410591A1
:104BC00004906068024603900498FBF763FB064676
:104BD000C4E0FDF79DFE002103910290606A002869
:104BE00001D1012238E0606A012801D1022233E0BC
:104BF000606A022801D104222EE0606A032801D1F4
:104C0000062229E0606A042801D1082224E0606AB3
:104C1000052801D10A221FE0606A062801D10C2272
:104C20001AE0606A072801D1102215E0606A08289E
:104C300001D1202210E0606A092801D140220BE056
:104C4000606A0A2801D1802206E0606A0B2802D13E
:104C5000FF22013200E00122002301920399029811
:104C6000FBF718FBFF2301330022129311921391DB
:104C700014901A46119BFBF7F5FA6268520800235C
:104C80008018594105910490606802460390049889
:104C9000FBF700FB064661E0606A002801D10122B3
:104CA00038E0606A012801D1022233E0606A0228FC
:104CB00001D104222EE0606A032801D1062229E0F6
:104CC000606A042801D1082224E0606A052801D125
:104CD0000A221FE0606A062801D10C221AE0606AED
:104CE000072801D1102215E0606A082801D120228E
:104CF00010E0606A092801D140220BE0606A0A28AE
:104D000001D1802206E0606A0B2802D1FF22013225
:104D100000E0012200230120C00319460392FBF7A3
:104D2000B9FAFF23013300221693159217911890B8
:104D30001A46159BFBF796FA626852080023801802
:104D40005941059104906068024603900498FBF76E
:104D5000A1FA064602E00120079000BF00BF032031
:104D60000002864205D38548864202D82068C66084
:104D7000B3E201200790B0E20121C903E069884253
:104D800070D1002D06D0022D53D0042D6BD0082DEC
:104D90006AD1ECE0FDF7A8FD0490606A002801D11B
:104DA000012038E0606A012801D1022033E0606A06
:104DB000022801D104202EE0606A032801D10620D8
:104DC00029E0606A042801D1082024E0606A0528EF
:104DD00001D10A201FE0606A062801D10C201AE0E8
:104DE000606A072801D1102015E0606A082801D107
:104DF000202010E0606A092801D140200BE0606AA1
:104E00000A2801D1802006E0606A0B2802D1FF2029
:104E1000013000E0012001460498FBF719FC400036
:104E200061684908401805906168FBF711FC86B27B
:104E3000F1E0606A002801D101203BE0606A0128AE
:104E400001D1022036E0606A022801D1042031E05D
:104E5000606A032801D106202CE0606A042804D18E
:104E6000082027E0EDE033E0D2E0606A052801D1B8
:104E70000A201FE0606A062801D10C201AE0606A4F
:104E8000072801D1102015E0606A082801D12020F0
:104E900010E0606A092801D140200BE0606A0A280E
:104EA00001D1802006E0606A0B2802D1FF2001308A
:104EB00000E0012001463048FBF7CAFB4000616872
:104EC0004908401805906168FBF7C2FB86B2A2E072
:104ED000FDF71EFD0490606A002801D1012038E032
:104EE000606A012801D1022033E0606A022801D102
:104EF00004202EE0606A032801D1062029E0606AC0
:104F0000042801D1082024E0606A052801D10A2084
:104F10001FE0606A062801D10C201AE0606A0728A9
:104F200001D1102015E0606A082801D1202010E08E
:104F3000606A092801D140200BE0606A0A2801D18B
:104F4000802006E0606A0B2802D1FF20013000E0DB
:104F5000012001460498FBF77BFB4000616849088B
:104F6000401805906168FBF773FB86B253E0606AF6
:104F7000002805D101203CE00024F400FFFF0F00D1
:104F8000606A012801D1022033E0606A022801D161
:104F900004202EE0606A032801D1062029E0606A1F
:104FA000042801D1082024E0606A052801D10A20E4
:104FB0001FE0606A062801D10C201AE0606A072809
:104FC00001D1102015E0606A082801D1202010E0EE
:104FD000606A092801D140200BE0606A0A2801D1EB
:104FE000802006E0606A0B2802D1FF20013000E03B
:104FF000012001460120C003FBF72AFB4000616845
:105000004908401805906168FBF722FB86B202E070
:105010000120079000BF00BF102E0FD3B448864276
:105020000CD8B3480F38304008903007400F08992B
:105030000843089008982168C8604EE10120079055
:105040004BE1002D06D0022D52D0042D73D0082D37
:1050500072D1E8E0FDF748FC0490606A002801D1B5
:10506000012038E0606A012801D1022033E0606A43
:10507000022801D104202EE0606A032801D1062015
:1050800029E0606A042801D1082024E0606A05282C
:1050900001D10A201FE0606A062801D10C201AE025
:1050A000606A072801D1102015E0606A082801D144
:1050B000202010E0606A092801D140200BE0606ADE
:1050C0000A2801D1802006E0606A0B2802D1FF2067
:1050D000013000E0012001460498FBF7B9FA61684D
:1050E0004908401805906168FBF7B2FA86B2E9E01A
:1050F000606A002801D101203AE0606A012801D1EC
:10510000022035E0606A022801D1042030E0606AA4
:10511000032801D106202BE0606A042801D1082071
:1051200026E0606A052801D10A2021E0606A06288D
:1051300003D10C201CE028E0C1E0606A072801D1FF
:10514000102015E0606A082801D1202010E0606A74
:10515000092801D140200BE0606A0A2801D1802093
:1051600006E0606A0B2802D1FF20013000E0012038
:1051700001466048FBF76CFA6168490840180590E1
:105180006168FBF765FA86B29CE0FDF7C1FB04900D
:10519000606A002801D1012038E0606A012801D14D
:1051A000022033E0606A022801D104202EE0606A08
:1051B000032801D1062029E0606A042801D10820D3
:1051C00024E0606A052801D10A201FE0606A0628F1
:1051D00001D10C201AE0606A072801D1102015E0E7
:1051E000606A082801D1202010E0606A092801D1F6
:1051F00040200BE0606A0A2801D1802006E0606A46
:105200000B2802D1FF20013000E001200146049864
:10521000FBF71EFA61684908401805906168FBF7C2
:1052200017FA86B24EE0606A002801D1012038E00A
:10523000606A012801D1022033E0606A022801D1AE
:1052400004202EE0606A032801D1062029E0606A6C
:10525000042801D1082024E0606A052801D10A2031
:105260001FE0606A062801D10C201AE0606A072856
:1052700001D1102015E0606A082801D1202010E03B
:10528000606A092801D140200BE0606A0A2801D138
:10529000802006E0606A0B2802D1FF20013000E088
:1052A000012001460120C003FBF7D2F961684908DB
:1052B000401805906168FBF7CBF986B202E0012047
:1052C000079000BF00BF102E05D30948864202D8C0
:1052D0002068C66001E00120079001216A20015387
:1052E000682001530020E0662067079819B0F0BDE0
:1052F000FFFF00000024F400FFB581B004460D4616
:1053000017460A9E24E0701C002821D0FCF78CFF71
:105310000499401AB04201D8002E19D120680068C3
:10532000FF21A13188432168086020688068400817
:105330004000216888602021802001518420015193
:1053400000BF00217C20015500BF032005B0F0BD47
:105350002068C0692840A84201D1012000E0002057
:10536000B842D0D00020F1E78EB046A103A8FBF7E9
:10537000BDF87D23DB000A2203A94548FEF752FC55
:1053800044A103A8FBF708F800BF7D23DB0004223B
:1053900003A93F48FEF746FC7D20C00001F009FA52
:1053A0000022D2433D480168684601F041FA684650
:1053B00007C80BAB07C30B98202851D10C9C206861
:1053C00001F08EFB0546002D0BD02846FBF7B4F804
:1053D00086B27D23DB00324629462D48FEF722FCAB
:1053E0000EE02FA12846FAF7D7FF2846FBF7A4F8CE
:1053F00086B27D23DB00324629462548FEF712FCA3
:1054000029A103A8626AFAF7C7FF03A8FBF794F87B
:1054100086B27D23DB00324603A91D48FEF702FC5D
:10542000211D03A8FBF762F803A8FBF785F886B2F5
:105430007D23DB00324603A91548FEF7F3FB13A1D9
:1054400003A8FBF753F87D23DB00022203A91048D1
:10545000FEF7E8FB21461148006801F0DDF994E70A
:1054600013A103A80B9AFAF797FF7D23DB0008220C
:1054700003A90748FEF7D6FB06A103A8FAF78CFF9D
:1054800083E700004C65747320676F210D0A0000EC
:10549000700100202E0D0A3E000000001C000020BC
:1054A000756E6B6F776E00003A25756C3A000000E0
:1054B0006576656E743A25640000000000B59FB003
:1054C000382111A8FBF7C2F800200D900E900F9024
:1054D000109034216846FBF7B9F801204002FCF730
:1054E0004FFF02201190C001149000201590402021
:1054F00016900020189011A8FDF77CFA002801D022
:10550000FCF794FA07200D9000200E900F90109059
:1055100000210DA8FDF7DAF8002801D0FCF786FA83
:1055200020200090002003906846FCF755FF0028DB
:1055300001D0FCF77BFA1FB000BD86B005460026FF
:105540002C4600BF002E11DD21886068FCF75EFE4E
:10555000962001F02EF93046711ECEB20028F1D10E
:10556000218800226068FCF759FEEBE70022D24355
:105570000321684601F066FA684607C803AB07C313
:1055800003980828DED10A26DCE700008CB0074625
:105590003D46A869002801D1099004E0A8690428C3
:1055A00001D10120099002F019FB0A90002001F0BE
:1055B0002DFE0B90002001F029FE0B9002F026FB3F
:1055C00060620A98206029A1201D0B9AFAF7E4FE78
:1055D00021462B48006801F079F900BF082268696C
:1055E000104301460022D24301A801F02BFA01A882
:1055F00007C804AB07C304980828EFD109984000F6
:1056000020490E5A3C2E07D20422686910430146F5
:105610001D48006801F0E8F90898801B079007987A
:105620000A2804D80921C9430798884207D20222D0
:105630006869104301461548006801F0D5F900215A
:10564000C9430F48006801F0D2F8044602F0DEFAC0
:1056500060620A98206032460DA1201DFAF79CFE78
:1056600021460748006801F031F9B7E757617465D2
:10567000726D61726B3A256C7520776F726473007E
:105680001C00002026000020000000200400002054
:10569000446973743A256420636D000090B0054638
:1056A000242104A8FAF7D2FF2C461B48A168FCF776
:1056B00084FB002004901620059002200690002014
:1056C0000790089000BF0422E0681043014664225E
:1056D00001A801F0B7F901A807C80DAB07C30D98E1
:1056E0000828F0D10020069004A90B48A268FCF716
:1056F0009FF9002801D0FCF799F9084801F059F802
:105700000220069004A90448A268FCF791F9002839
:10571000D9D0FCF78BF9D6E7A4000020B80B000025
:10572000002101707D21C90041607F21C905C16050
:105730000021C9438160090D01830449C161002131
:1057400001614161016241627047000080BB00005D
:10575000F0B595B00446A068401C002839D0A06878
:10576000FBF7BAFCA0491290FBF7BCFB0746E069C7
:10577000FBF7B2FC1290606AFBF7B6FC119012992D
:10578000FBF7B0FB3946139002F0F4FC21D230460F
:10579000FBF77EFB0022954B0D910C90FBF7D4F9A3
:1057A00011911090208BFBF79FFC0D90E16802F0A7
:1057B00089FC0746FBF76CFB0F910E90119B109A2A
:1057C000FBF742FA13911290FBF7EEF980B215B095
:1057D000F0BD606A401C60622078002846D1606994
:1057E000FBF756FB824A834B07910690FBF72CFA96
:1057F0000B910A90206AFBF724FA07910690E06962
:10580000FBF76AFC01906068FBF766FC0090019969
:10581000FBF768FB0746FBF73BFB754A754B0391AB
:105820000290FBF711FA05910490079B069AFBF78B
:105830000BFA099108900B9B0A9AFBF785F90D91D9
:105840000C9000F023FE0022684B0F910E90FBF7A6
:10585000FBF90022654B11911090FBF775F913913C
:105860001290FAF7B7FFE06226697CE02078012801
:105870001ED1E069FBF730FC11906068FBF72CFC4F
:105880001090206AFBF730FC0F90109902F01AFC80
:1058900007461199FBF726FB1290616902F0A2FB03
:1058A0007F21C905139000F071FAE06226695AE081
:1058B000207802282DD1E069FBF70EFC119060687A
:1058C000FBF70AFC1090206AFBF70EFC0F90109972
:1058D00002F0F8FB07461199FBF704FB129061698F
:1058E00002F080FB01218907139002F0EBFBE062DC
:1058F00001218907E06A00F049FA07467F21C905BE
:1059000002F070FCE062E06A41004908E162266949
:1059100029E02078032824D16068FBF7DDFB119093
:10592000E069FBF7D9FB10901199FBF7DBFA012135
:1059300089071290FBF7D6FA0746206AFBF7D4FBDB
:105940001290616902F04EFB3946139002F090FB11
:1059500002D20020E06202E07F20C005E0622669FA
:1059600001E0002033E7208B234988421AD13046DA
:10597000E16A02F037FB13902049E06802F0A2FBD5
:105980001290139902F09EFB0746FBF75BFB05465E
:105990001B498D4201DD0D4602E0002D00DA002595
:1059A0002D011BE03046E16A02F01CFB1290208BB7
:1059B000FBF79AFB1190E16802F084FB074612990D
:1059C00002F080FB1390FBF73DFB0546218BA942BB
:1059D00001DA258B02E0002D00DA0025206A401C48
:1059E00020622585A8B2F2E600007A440000E03F7C
:1059F000F1D4C853FB211940F0FF000000F07F45AF
:105A0000FF0F0000F0B504460D46069F059E204698
:105A1000FFF786FE25706260E360A660278320465C
:105A2000F0BD00B502461046FFF77AFE104600BDF5
:105A300008B500BF0E48806B012108430C498863FC
:105A40000846806BC007C00F009000BF00BF002257
:105A500003210920FCF78AFC0920FCF77BFC0022CB
:105A600003210A20FCF782FC0A20FCF773FC08BD26
:105A70000010024000B589B024216846FAF7E6FD1F
:105A80001348144908600846FCF7EAF8002801D0DA
:105A9000FBF7CCFF00200090162001900020029020
:105AA00003900490002269460A48FBF7C1FF0028D2
:105AB00001D0FBF7BBFF0020039010226946054888
:105AC000FBF7B6FF002801D0FBF7B0FF09B000BD1F
:105AD00000740040A400002000B587B0142102A883
